:020000020000FC
:0200000048C0F6
:04001C000C946F05CC
:0200300098C175
:040068000C94BE0B2B
:10007C000C94A60C9617F60119011809110A760BA7
:10008C006A0C090F600FF8940FE30EBF0FEF0DBF52
:10009C0020D09ED0F0E0E0E8B8E2A1E0D8E2C3E9DD
:1000AC0029E0059115910A931A932197CD93DD932D
:1000BC0003E8C00F00E0D01F2A9599F700E00093E9
:1000CC00002800910128109102281EBF0DBF7894C2
:1000DC00089500E00093040402E00093000400E0A3
:1000EC00009310040093110400931404009315045E
:1000FC0008E000931204009313040093140400937B
:10010C00170404E0009324040FE00093200400E0A3
:10011C0000933004009331040093320400933304B1
:10012C000093350408E00093340408E00093440481
:10013C0009E40093400400E0009350040093510440
:10014C0000935204009353040093560408E0009368
:10015C005404009355040093570400E00093640486
:10016C0000E50093600400E00093700400937104B8
:10017C000093720400937304009374040093750449
:10018C00009376040093770400E00093840400E06D
:10019C000093800408E00093900400939104009372
:1001AC0092040093930400E00093A40404E00093F1
:1001BC00A00400E00093B0040093B1040093B204D7
:1001CC000093B30408E00093B4040093B5040895BD
:1001DC0018ED00E014BF0093610003E014BF00931E
:1001EC0060000091630000FDFCCF0895B8E2A1E02F
:1001FC0000910028000FA00F0027B01F0DB70D9322
:10020C000EB70D93009100280395093018F00027C4
:10021C00B8E2A1E0009300280D911D91F8941EBF47
:10022C000DBF7894089579D00E94FC002091932CF6
:10023C0020FFFACF2E7F0091B22C015010F00093CA
:10024C00B22C0091D62C015010F00093D62C0091BA
:10025C00002E015010F00093002E0091012E015041
:10026C0010F00093012E0091A82E015010F0009375
:10027C00A82E0091902E015010F00093902E00911A
:10028C00AF2C015010F00093AF2C0091B92D015000
:10029C0010F00093B92D21FF3DC02D7F00915E2DF4
:1002AC00015010F000935E2D00912F2F015010F093
:1002BC0000932F2F0091922E015010F00093922E4C
:1002CC000091BA2D015010F00093BA2D22FF22C0DC
:1002DC002B7F0091322D015010F00093322D0091A4
:1002EC00462D015010F00093462D0091522D0150D7
:1002FC0010F00093522D00918F2E015010F00093AE
:10030C008F2E23FF07C0277F0091932E015010F0F2
:10031C000093932E2093932C87CF00E00093800AB8
:10032C000093810A0093840A00E018E400938C0A7D
:10033C0010938D0A01E00093850A00E00093932C42
:10034C000AE00093942C0093952C0093962C01E0DA
:10035C000093800A08950F930FB70F931F932F9359
:10036C0001E00093860A1091932C11600091942C5B
:10037C000A950093942CB1F42AE02093942C1260EB
:10038C000091952C0A950093952C61F42093952C53
:10039C0014600091962C0A950093962C19F42093D6
:1003AC00962C18601093932C2F911F910F910FBFC7
:1003BC000F91189553502070726573737572652088
:1003CC00666C6F772076656C5F73702076656C5FFA
:1003DC0063757220706F7320742B20662B0D0A00CE
:1003EC00002700939F2D0093A02D0093A12D009327
:1003FC00A22D2DD0F3E0E0EC61D00E94FC00009126
:10040C00972C0130D1F700E00093972CD3D7002420
:10041C000A2FDD0F001D0093A12D0091D82CA09167
:10042C00D92CB091DA2C14E67AD000E0A091EE2E03
:10043C00B0E0A7FDBFEF14E672D000E0A091F62E5D
:10044C00B0E0A7FDBFEF14E66AD033D0D6CF0027BB
:10045C000093050800E1009305040093010400E0FB
:10046C000093140400E2009306040093020400E0DD
:10047C00009315040091E2050C7F01600093E205E6
:10048C0000E812E0009308081093090803E00093B9
:10049C00070800EC0093060808950F9300910408D8
:1004AC0005FD03C00E94FC00F9CF0F9100930208D8
:1004BC0008950DE0F2DF0AE0F0DF089505910030B9
:1004CC0031F0EF93FF93E9DFFF91EF91F7CF0895B0
:1004DC00B7FF09C0AF93BF930DE2DFDFBF91AF91C0
:1004EC00B095A195BF4F45D04F933F932F931F933A
:1004FC00003359F40F91003351F40F91003349F448
:10050C000F91003341F40F9108C0C7DF0F91C5DF85
:10051C000F91C3DF0F91C1DF0F91BFDF0895019FD2
:10052C00A02CB12CB19FC02CA19FB00CC11CBC2D18
:10053C00AB2DA7FC1196CCDF00E2AFDF08950F7056
:10054C0000630A3308F0095F08950F930295F7DFF3
:10055C00102F0F91F4DF08953FE21FE22AE3339549
:10056C000456E8F70C5913950A50E8F7200F032F9F
:10057C00089540E05FE06AE07DECAA2EBA2ECB2E07
:10058C00DB2EB294D294A522B522C522D5220B2DF6
:10059C000C0D0D0D16E0019FA00C141E179E002DC6
:1005AC00A79E010D069506950695069FA0183C2D55
:1005BC003D0D15E0319FDD0CDD0CB00CBD0CB00E0B
:1005CC00B79E169416941694CC0CC10C169EB018AB
:1005DC00C79E169416941694D10C169EC018D79ECE
:1005EC00169416941694E12C169ED01800E310E382
:1005FC0020E330E340E30E291D292C293B294A290D
:10060C000895FF244AE05DEC76E080E30D91102F15
:10061C000F7012951F70179F000D2D91322F2F7098
:10062C00279F000D021A100D220F222E32953F70BB
:10063C0029E0329F100D379F000DAA24A11C330F07
:10064C00330F332E2D91322F2F70279F000DA11CAD
:10065C00402C021A200C300C220F021A100DBB2455
:10066C00BF1C32953F70632E232F330F330F430E75
:10067C00320F230E320F030FAF1C320F130FBF1CA0
:10068C00320F330E2D91322F2F70722E120FBF1C82
:10069C00279F000DAF1C600C020E300CDD24D11C0A
:1006AC00400C502C220F220E32953F70232F330F0B
:1006BC00832E320F430EEE24EF1C320F230ECC246C
:1006CC00CF1C530E320F130FBF0C330EDF1C320F27
:1006DC00030FAF1C730E320F320F630E059F212DCB
:1006EC00A59E020E1F1C169407941694079406944C
:1006FC00100DB11C049E0019082B0987159F212D84
:10070C00B59E020E1F1C1694079406940694200C9A
:10071C00C11C049E1019182B1887259E212DC59ECF
:10072C00020E1F1C1694079406940694300CD11CD0
:10073C00049E2018282A2F82359E212DD59E020E2C
:10074C001F1C1694079406940694400CE11C049EFE
:10075C003018382A3E82459E212DE59E020E1F1C24
:10076C001694079406940694500C049E4018482A3C
:10077C004D82559E169416941694610C149E501826
:10078C00582A5C82659E169416941694710C149ECD
:10079C006018682A6B82759E169416941694810CB8
:1007AC00149E7018782A7A82859E16941694169444
:1007BC00912C982A9882149E8018882A89820895F0
:1007CC0005910D930030E1F70895003021F015915B
:1007DC001D930A95E1F70895003021F019911D93AE
:1007EC000A95E1F7089500272191203021F0039517
:1007FC000030D1F70FEF08950395102F00272191AA
:10080C00203021F003951A95D1F70A950895002709
:10081C002591203021F003950030D1F70FEF08958A
:10082C000395102F00272591203021F003951A9560
:10083C00D1F70A950895805540332B25201C1A17A3
:10084C0015141211100F0E0D023090F0033180F4BC
:10085C000250F8E0E2E4E00F00E0F01F0491A09FEA
:10086C00E02DA12DB09FA00DB0E0B11DE7FD1196BC
:10087C000895B09FB02D212CA09FA02DB10D221C4E
:10088C0021F42A2E2B2A889401C0089408950F93E2
:10089C00BB24AA2499248824889401E2001C111CEE
:1008AC00221C331C0A9589F0881C991CAA1CBB1CA1
:1008BC0084189508A608B70830F4840C951CA61C5F
:1008CC00B71C8894EBCF0894E9CF0F91089522249C
:1008DC007502200D311D649F000D111D221D321D4E
:1008EC0074033209100D211D321D56033209100DEF
:1008FC00211D321D0895222475022001649F000DD4
:10090C00111D241D351D74033209100D211D321DBE
:10091C0056033209100D211D321D08952224750233
:10092C009001649F800174033209100D211D321D4A
:10093C0056033209100D211D321D089546E850E86A
:10094C00532339F030952095109501951F4F2F4F5B
:10095C003F4F303029F0012F122F232F485F0FC04B
:10096C00203069F4103029F0212F102F0027485027
:10097C0006C0003081F0202F11270027405127FDA1
:10098C0005C0000F111F221F4A95F9CF220F342FDB
:10099C00550F379527950895B7FF0FC0B095A095C3
:1009AC00D095C195DF4FAF4FBF4F19D0B095A095E3
:1009BC00D095C195DF4FAF4FBF4F08950C2E1D2E14
:1009CC002A2E3B2E3594279417940794359427940C
:1009DC0017940794C00DD11DA21DB31D0895B7FD2A
:1009EC0019C0B03099F425E0019111911F3F71F0BD
:1009FC00D017A10740F4219111910191519141918E
:100A0C00319109D007C036962A9571F7B0E0AFEF57
:100A1C00DFEFCFEF089544240A9FD12CC02C0C9FFC
:100A2C00B12CA02C2D9F212C0D9F312C202C1C9FE8
:100A3C00A10CB21CC31CD41C1A9F312C202C2D9F32
:100A4C00A10CB21CC31CD41C2A9FA00CB11CC41C2E
:100A5C00D41C1D9FA00CB11CC41CD41C00E037FD81
:100A6C000FEFA50EB41EC31ED01ED7FE05C0BB27AC
:100A7C00AA27DD27CC2704C0BD2DAC2DDB2DCA2D1C
:100A8C00089507E0009326040093210400E00093EE
:100A9C003004009331040093320401E00093E40528
:100AAC0000E00093000A0093030A01E10093010A9D
:100ABC0001E000930B0A00930A0A50D1A0E0B0E0C9
:100ACC00A0939A2CB0939B2C5BD107E00093000A67
:100ADC0008950F930FB70F9301E000930B0A009149
:100AEC00280400FD7BC01F93AF93BF93EF93FF933C
:100AFC00A0919E2CB0919F2C0091010A04FF0AC07A
:100B0C000091280401FF119701FD1196A0939E2CD2
:100B1C00B0939F2C0091A02C01FD42C0003079F1C4
:100B2C000091B62C07FD0CC0003031F40091B52CAF
:100B3C0010918C14011720F001E00093A12C2DC012
:100B4C000091DA2C07FD0CC0003031F40091D92C47
:100B5C0010918D14011720F001E00093A22C1DC000
:100B6C00E0919A2CF0919B2CF7FD15C0BA30DCF07B
:100B7C0011F4A03FC0F001E00093A32C0EC0E09153
:100B8C009A2CF0919B2CF7FD06C0BA3064F041F41E
:100B9C00A03F48F005C0B7FF06C003E00093A02CAF
:100BAC00B0E0A0E015C0A0919C2CB0919D2CEA1750
:100BBC00FB0779F03CF01896EA17FB074CF4AE2FC4
:100BCC00BF2F06C01897EA17FB0714F0AE2FBF2FE4
:100BDC00D7D0FF91EF91BF91AF911F910F910FBFA4
:100BEC000F9118954EDFB0E1A8E6F894A0939E2CD7
:100BFC00B0939F2C7894A6EFBFEFA0939A2CB09350
:100C0C009B2C2BD00091880401FF0AC002FF16D048
:100C1C00F894A0919E2CB0919F2C7894AB2B89F7D3
:100C2C007FD020D00895CAE0D0E0BAE0A0EF3CD04D
:100C3C00C6EFDFEFAA27BB2755D00895BFEEA8E972
:100C4C00F894A0939E2CB0939F2C7894AAE0B0E0DB
:100C5C00A0939A2CB0939B2C08950E94381009F401
:100C6C00E2D60895AA27BB27F894A0939E2CB093A4
:100C7C009F2C7894AAE0B0E0A0939A2CB0939B2C74
:100C8C00ECDF0091880401FFFBCF4AD0BEEFA4ED4E
:100C9C00F894A0939E2CB0939F2C7894CAE0D0E04B
:100CAC00AA27BB2701D00895C0939A2CD0939B2CD4
:100CBC00A093A82CB093A92CD0DF0091880401FD3F
:100CCC0002C0BEEFA4EDF894A0919E2CB0919F2C85
:100CDC007894C091A82CD091A92CAC17BD0764F3C3
:100CEC001FD00895C0939A2CD0939B2CA093AA2C20
:100CFC00B093AB2CB2DF0091880401FD02C0BEEFB3
:100D0C00A4EDF894A0919E2CB0919F2C7894C09156
:100D1C00AA2CD091AB2CCA17DB0764F301D0089531
:100D2C0000E000939A2C00939B2C97DFA0919C2CB5
:100D3C00B0919D2CAB2BC9F7089500E00093A12C2A
:100D4C000093A22C0093A32C0093A42C0093A52C0D
:100D5C000093A62C01E00093A02C089500E00093D2
:100D6C00A02C0093A12C0093A22C0093A32C0093F5
:100D7C00A42C0093A52C0093A62C0093A72C0895CB
:100D8C00A0939C2CB0939D2CA03061F4B03051F406
:100D9C00BDE2A0E0A093280AB093290A01E00093D9
:100DAC00010A1BC0B7FF07C002E000932604B095F0
:100DBC00A195BF4F03C002E000932504FDE0E8EECF
:100DCC00AA0FBB1FEA0FFB1FA591B591A093280A90
:100DDC00B093290A01E10093010A0895FFFF50C363
:100DEC00A8611B41D43010278D20E71B6A18B4155D
:100DFC008813C1114710060FF30D050D350C7D0B33
:100E0C00DA0A480AC4094D09E1087E082308D0070C
:100E1C0083073C07FA06BC0683064D061B06EB054A
:100E2C00BF0595056D05470524050205E204C404BC
:100E3C00A6048B04700457043F0428041204FC031A
:100E4C00E803D403C203AF039E038D037D036D033C
:100E5C005E034F034103340326031A030D030103FE
:100E6C00F602EA02DF02D502CA02C002B602AD02E5
:100E7C00A4029B0292028902810279027102690228
:100E8C0062025A0253024C0245023F0238023202FD
:100E9C002C0225021F021A0214020E02090203027E
:100EAC00FE01F901F401EF01EA01E501E101DC01C8
:100EBC00D801D301CF01CB01C701C201BE01BA01D8
:100ECC00B701B301AF01AB01A801A401A1019D01C0
:100EDC009A019701930190018D018A018701840188
:100EEC0081017E017B0178017501720170016D0138
:100EFC006A0168016501630160015E015B015901D2
:100F0C0056015401520150014D014B014901470159
:100F1C004501430141013E013C013A0139013701D0
:100F2C003501330131012F012D012B012A0128013B
:100F3C0026012401230121011F011E011C011A019C
:100F4C0019011701160114011301110110010E01F1
:100F5C000D010B010A01090107010601040103013E
:100F6C0002010001FF00FE00FD00FB00FA00F90089
:100F7C00F800F600F500F400F300F200F000EF00CA
:100F8C00EE00ED00EC00EB00EA00E900E700E60003
:100F9C00E500E400E300E200E100E000DF00DE0039
:100FAC00DD00DC00DB00DA00D900D800D800D70067
:100FBC00D600D500D400D300D200D100D000CF0091
:100FCC00CF00CE00CD00CC00CB00CA00CA00C900B7
:100FDC00C800C700C600C600C500C40000E00093EE
:100FEC00000600930306009304060093050605E033
:100FFC000093010604E60093020601E0009300064C
:10100C0008950093060601E0009308060E94FC0078
:10101C000091080600FDFACFA0911006B0911106C0
:10102C0008950CE0009305040093020408E000937B
:10103C0012040093130400E00093A3080093A1088A
:10104C000093A20809E20093A6080CE10093A00803
:10105C000DE00093A30808E00093A40801E00093BE
:10106C00A50800EC0093A5080895000F01600093FB
:10107C00A70823D0A9F40091A8080093AD2C02E096
:10108C000093A4081AD061F40091A8080093AC2C2A
:10109C0007E00093A408A091AC2CB091AD2C18944F
:1010AC0008950093AE2CE1DF39F00E94FC000E9401
:1010BC00FC000091AE2CD9DF089502E00093AF2C18
:1010CC000E94FC000091AF2C003049F00091A50863
:1010DC00023A39F00F7E023099F3023289F302D0D2
:1010EC00989408950093B02C023621F407E00093F5
:1010FC00A40809C00E94FC0000E00093A30804D0DF
:10110C000091B02C8EDF089508E0009301040E943A
:10111C00FC0008E0009306040E94FC0008E0009329
:10112C0005040E94FC000895F02EFA940027112764
:10113C00222733274A815B81499359936591759195
:10114C00DADBFA94B9F7AD0149935993659175912E
:10115C00D2DBD901E80108950F023905B808290E30
:10116C0005130118EC1A5A1CEC1A01180513290E58
:10117C00B80839050F02E0FC2501B601AE020B04DC
:10118C00C805E307580A1F0D2F107913EB16711AB7
:10119C00F31D5A218D247327F529002C832D702ED5
:1011AC00C02E702E832D002CF52973278D245A21E7
:1011BC00F31D711AEB1679132F101F0D580AE30744
:1011CC00C8050B04AE02B6012501E0FC3B077D24EB
:1011DC009A4CC7609A4C7D243B075555565555552E
:1011EC005555565555550500B12CB208C10800008F
:1011FC0008000201312DEC08F308003407000A0244
:10120C00452DF308F608000000000A03512DF308E1
:10121C00F6080000000001055D2DF608F908000035
:10122C00000000000DD02BD00E94FC002FD0D9F371
:10123C0034D021F445D059D09AD06DD07BD0F4CF96
:10124C0000E100936504BCE2A1EB00270D93A936E5
:10125C00E9F7BD32D9F70FEF0093B22C02E00093FF
:10126C00322D0AE00093462D0AE00093522D01E046
:10127C0000935E2D0FEF0093D62CB0DE0895F1E1B4
:10128C00E2EFE093A32DF093A42D0895E091A32D0C
:10129C00F091A42D159110300895E091A32DF091AB
:1012AC00A42D15910591C591D5912981203039F442
:1012BC001983C093A52DD093A62DA3DE1894089561
:1012CC00E091A32DF091A42D3496259135910591A3
:1012DC001591021B130BF901EE0FFF1FC091A52DE9
:1012EC00D091A62D269620DF0895E091A32DF091A4
:1012FC00A42D38962591359105912295122F107FAA
:10130C002F703295432F407F3F70242BD11BA20BA3
:10131C00B30B1AD00895FD2FEC2FC091A52DD091B1
:10132C00A62DF894EA83FB83AC83BD83789401E00B
:10133C0008830895E091A32DF091A42D3C96E093A1
:10134C00A32DF093A42D0895003081F0083040F0C7
:10135C00CD2FDA2FAB2FB0E0A7FDBFEF085031F047
:10136C00B595A795D795C7950A95D1F70895E091AE
:10137C00A32DF091A42DE23FE1F4F131D1F4D09002
:10138C008D2DC0908C2DB0908B2DA0908A2D0D2D75
:10139C000C290B290A2969F0CA19DB09AC09BD090A
:1013AC002CF4BB27AA27DD27CC2703C0F4E1E1E608
:1013BC0016DB08957091362D6091352D5091342D9A
:1013CC004091332DD0909A2DC090992DB090982D9E
:1013DC00A090972D4A195B096C097D0924F4772795
:1013EC00662755274427D0909E2DC0909D2DB090F8
:1013FC009C2DA0909B2D00E06B9DB12DA02D5A9D96
:10140C00D12DC02D6A9DD00DA11DB01F5B9DD00D9F
:10141C00A11DB01F08954FD00E94FC000091D62C46
:10142C000030D1F702E00093D62C04E00093A50421
:10143C0008E237DEB9F50B2F007C61F0003899F526
:10144C000E94FC000E94FC0008E22BDE69F50B2FC9
:10145C00007C59F5DCE2CBEDF1E1E2E80BE2AF5FA9
:10146C00BF4162DE06E070DF83D00091852D013034
:10147C0039F0F4E1E1E1B3DAF4E1E9E38DDA9EDA93
:10148C00F894C093D72CD093D82CA093D92CB0938C
:10149C00DA2C789401E00093D52C42D004E0009330
:1014AC00A604BACF00000000000000001FD004E02A
:1014BC000093A604B1CF02E00093050408E000936A
:1014CC002504BCE2A5ED00270D93A133E9F7BD324D
:1014DC00D9F70093692D00936A2D00936B2D00931F
:1014EC006C2D0FEF0093D62C9CDD089502E0009339
:1014FC00060408E00093260402E00093D62C0E9418
:10150C00FC000091D62C0030D1F702E000930504CA
:10151C0008E0009325040FEF0093D62C82DD08958C
:10152C0000912C2F0330DD0FAA1FBB1FDD0FAA1F4C
:10153C00BB1FDD0FAA1FBB1F5B2F4A2F71E061E1A0
:10154C000091692D10916A2D20916B2D30916C2D8D
:10155C00D2D937FF04C03327222711270027009345
:10156C00692D10936A2D20936B2D30936C2D08955B
:10157C00D090892DC090882DB090872DA090862D6D
:10158C00CA19DB09AC09BD09089500E00093692D67
:10159C0000936A2D00936B2D00936C2D0895A090F1
:1015AC00B32CB090B42CC090B52CD090B62CA0928B
:1015BC006D2DB0926E2DC0926F2DD092702DA09289
:1015CC00792DB0927A2DC0927B2DD0927C2DA0904B
:1015DC00D72CB090D82CC090D92CD090DA2CA092CB
:1015EC00712DB092722DC092732DD092742DA09249
:1015FC007D2DB0927E2DC0927F2DD092802DA0900B
:10160C00692DB0906A2DC0906B2DD0906C2DA0924E
:10161C00752DB092762DC092772DD092782DA09208
:10162C00812DB092822DC092832DD092842D08955D
:10163C00A090B32CB090B42CC090B52CD090B62CFC
:10164C0000906D2D10906E2D20906F2D3090702D80
:10165C000A181B082C083D0844F4A0926D2DB0927A
:10166C006E2DC0926F2DD092702DA090D72CB09073
:10167C00D82CC090D92CD090DA2C0090712D1090D1
:10168C00722D2090732D3090742D0A181B082C0885
:10169C003D0844F4A092712DB092722DC092732D1E
:1016AC00D092742DA090692DB0906A2DC0906B2DA6
:1016BC00D0906C2D0090752D1090762D2090772D5C
:1016CC003090782D0A181B082C083D0844F4A09281
:1016DC00752DB092762DC092772DD092782D0895DD
:1016EC0024D008EC0093BA2D0091BA2D0030C1F330
:1016FC005CD0D1F70A35C1F758D0B1F7053AD1F71C
:10170C0054D091F70330B1F750D071F7013191F704
:10171C004CD051F70093BB2D48D031F70093BD2D21
:10172C000091BB2D0093BC2DDCCF01E0009346044F
:10173C000027009325080093B72D0093B82D009334
:10174C00BD2D0093BC2D04E651D001E0009345045F
:10175C0000E01EE1009328081093290803E0009391
:10176C00270800E80093250800E800932608089550
:10177C000F930FB70F93AF93BF93BDE2A7EA0091FE
:10178C00B72DA00F00E0B01F009120080C93009122
:10179C00B72D0395003108F000E00093B72DBF91F1
:1017AC00AF910F910FBF0F91189504E60093B92DCF
:1017BC000E94FC000091B82D1091B72D011731F447
:1017CC000091B92D0030A1F798940FC0BDE2A7EAA3
:1017DC00A00F00E0B01F0C911091B82D1395103193
:1017EC0008F010E01093B82D189408950093BA2DBA
:1017FC000E94FC000091BA2D0030D1F708950091A1
:10180C00A02C01FD46C0F894A0919E2CB0919F2C69
:10181C007894C0918E14D0918F14AC1BBD0BBCF17D
:10182C00B091702DA0916F2DD0917C2DC0917B2DFE
:10183C003CD01A2FB091742DA091732DD091802D86
:10184C00C0917F2D32D0113034F4A13024F401E05A
:10185C000093A42C1EC000919014003051F010176E
:10186C0044F400919114A01724F001E00093A52CEE
:10187C0010C000919214003051F0101744F00091F8
:10188C009314A01724F401E00093A62C02C0189422
:10189C000BC00091A02C02600093A02C00E00093E0
:1018AC009A2C00939B2C98940895AC1BBD0B34F090
:1018BC00B03011F4A7FF07C0AFE705C0BF3F11F46C
:1018CC00A03808F4A0E808950DD049D165D170D1A5
:1018DC007CD188D19CD1ABD1C1D1CCD127D232D241
:1018EC0073D2F3CF0AEF86D200E40093650400278D
:1018FC00009345080093FE2D0093FF2D0093842E3A
:10190C0001E00093A5040093A10400E00093B0044F
:10191C0002E00093A6040093A20400E00093B1043B
:10192C0000E812E0009348081093490803E0009384
:10193C00470800E80093450800EC0093460808951A
:10194C000F930FB70F93AF93BF93BDE2AEEB009124
:10195C00FE2DA00F00E0B01F009140080C930091E9
:10196C00FE2D0395003408F000E00093FE2DBF918E
:10197C00AF910F910FBF0F91189504E60093012EB4
:10198C000E94FC000091FF2D1091FE2D011731F4E7
:10199C000091012E0030A1F798940FC0BDE2AEEB80
:1019AC00A00F00E0B01F0C911091FF2D1395103477
:1019BC0008F010E01093FF2D189408950F930091E8
:1019CC00440805FD03C00E94FC00F9CF0F91009361
:1019DC004208089500E4009344080E94FC00009122
:1019EC00440806FFFACF08950AE5E8DF05EAE6DFCA
:1019FC0008950D911D912D913D910E94A4043F934A
:101A0C002F931F93DBDF0F91D9DF0F91D7DF0F914E
:101A1C00D5DF08950091002E003021F40AE00093E8
:101A2C00002E01D0089501E00093972C0E945A19C2
:101A3C00FFDDDADF0DE0C2DF01EAC0DFBCE2A3EBC1
:101A4C00D8DFBCE2A7EDD5DFBDE2A9E6D2DF00917D
:101A5C00842E013021F400E00093842E0FD00895E1
:101A6C000F93C2DF03E0AADF03EAA8DF0F91A6DF22
:101A7C000091F72E11E00127A1DF0895B5DF0FE0EB
:101A8C009DDF04EA9BDF96DC00240A2FDD0F001D8E
:101A9C0095DF0091BD2D92DF0091BC2D8FDF009161
:101AAC00612D8CDF0091622D89DF1091280400E0FC
:101ABC0015FF01E083DF0091A12C80DF0091A22CA7
:101ACC007DDF0091A32C7ADF0091F72E77DF009158
:101ADC00A42C74DF0091A52C71DF0091A62C109121
:101AEC00A72C012B6BDF00912A2F68DF08957CDF78
:101AFC0002E064DF05EA62DF05E560DF08950F931D
:101B0C0073DF02E05BDF06EA59DF0F9157DF0895C0
:101B1C000F936ADF02E052DF07EA50DF0F914EDFCE
:101B2C0008950093852EA093862EB093872E5CDFAC
:101B3C000091852E039542DF08EA40DFA091862EA6
:101B4C00B091872E0D91A093862EB093872E36DF01
:101B5C000091852E0A950093852E81F708950DDF4F
:101B6C00F1F70A35E1F709DFD1F7053AD1F705DFCF
:101B7C00B1F70034A0F70093022E102FBEE2A3E0C1
:101B8C001F93AF93BF93F9DEBF91AF911F9139F7BC
:101B9C000D931A95A9F708950091032E013B39F482
:101BAC000091022E023019F400E000932B2F0895BF
:101BBC000091032E023B41F40091022E0F3021F4D0
:101BCC001ED001E000932B2F08950091032E033BB0
:101BDC0041F40091022E0B3021F411D002E000935D
:101BEC002B2F08950091032E043B41F40091022EFB
:101BFC000B3021F404D003E000932B2F0895DEE288
:101C0C00C4E0BEE2A4E400E40E94F2030895009153
:101C1C00032E053B59F40091022E023039F4009149
:101C2C00042E053519F401E000938D2E08950091D2
:101C3C00032E063B91F40091022E023071F40091B8
:101C4C00042E003021F400E00093912E06C00130E8
:101C5C0021F401E00093912E00C008950091032E11
:101C6C00073B39F40091022E013019F401E0009386
:101C7C00842E08950091032E083B09F056C0009164
:101C8C00022E0230D9F70091042E053111F5309057
:101C9C00362D2090352D1090342D0090332D309210
:101CAC00912D2092902D10928F2D00928E2DB4E1BB
:101CBC00A8E000918E2D2BD100918F2D28D1009171
:101CCC00902D25D10091912D22D101E000932E2F42
:101CDC002CC00C3350F1053640F50093962D309006
:101CEC00362D2090352D1090342D0090332D3092C0
:101CFC00952D2092942D1092932D0092922DB4E15B
:101D0C00ACE00091922D03D10091932D00D1009164
:101D1C00942DFDD00091952DFAD0B4E1A0E1009165
:101D2C00962DF5D001E000932E2F08950091032EEF
:101D3C00093B39F40091022E013019F401E00093B3
:101D4C002D2F08950091932E0030D1F00091032E89
:101D5C000A3BB1F40091042E043191F40091062E4B
:101D6C00003071F01091022E1450011749F4B0910B
:101D7C00042EA091052EDEE2C7E00091062E01D0C4
:101D8C00089519911D931A2F1F7321F407D00A95EA
:101D9C0021F0F7CF0A95A9F701D008950093882E6A
:101DAC00A093892EB0938A2EC0938B2ED0938C2E19
:101DBC00B5D0D0918C2EC0918B2EB0918A2EA09143
:101DCC00892E0091882E08950091032E0B3B89F4E7
:101DDC000091022E043069F4B091042EB43149F410
:101DEC0001E008D0B091042EA091052E0091062E92
:101DFC0098DE08950093002E0E94FC000091002EA6
:101E0C000030D1F7089500E000938D2E06E9009381
:101E1C008F2E00E000938E2E0E94FC0000918D2EE0
:101E2C00013091F000914804047081F700918F2EDD
:101E3C00003051F00C3880F700918E2E003061F795
:101E4C0001E000938E2EE8CF01E000938D2E04E08C
:101E5C000093250400E00093000A0093030A00930A
:101E6C00010A00930B0A00930A0A03E0009326046C
:101E7C0000E40093660400E00093440401E0009346
:101E8C00912E0E94FC00FACF14E61F9300E40093FD
:101E9C00470401E006D01F911A95B9F704E601D06A
:101EAC0008950093902E0E94FC000091902E00301B
:101EBC00D1F7089500E00093912E00E400934604BE
:101ECC000E94FC000091912E0030D1F30AD0F8CF83
:101EDC000093922E0E94FC000091922E0030D1F7BC
:101EEC00089500E4009345040AE0F2DF00E4009357
:101EFC0046040AE0EDDF08950E94FC0001E0009327
:101F0C00912E0E94FC0000E00093912E08950D93F9
:101F1C00AF93BF9303D0BF91AF9108951DE923E018
:101F2C00F89414BF2093001078940E94FC00009148
:101F3C00021001FDFACF089504D048D060D072D0C1
:101F4C000895CC27D091942E8091952ECF19DA0B31
:101F5C008B0B87FD05C0803059F4D7FD09C00AC032
:101F6C008F3F19F4D7FF01C005C0D0E8C0E002C014
:101F7C00DFE7CFEF4C2F5D2F6091962E7091972E4F
:101F8C000E949404089500E0D7FF04C001E0D095AE
:101F9C00C195DF4FCC9F402D512DDD9F602D712DB4
:101FAC00DC9F500D611D2224721D500D611D721D90
:101FBC00703011F467FF02C05EEF6FE7C52FD62FAC
:101FCC0000FF03C0D095C195DF4F089540919E2E20
:101FDC0050919F2E4C0F5D1F3BF4D7FD03C04FEF6C
:101FEC005FE702C040E050E840939E2E50939F2E36
:101FFC006091982E7091992E0E94810408954091C1
:10200C009C2E50919D2EC0939C2ED0939D2EC41B24
:10201C00D50B4C2F5D2F60919A2E70919B2E0E94A8
:10202C0081040895B32FA22FC091A62ED091A72E74
:10203C00AC17BD071CF4AC2FBD2F09C0C091A42E4A
:10204C00D091A52EAC17BD0714F0AC2FBD2F089561
:10205C000E94FC000091A82E0030D1F70AE00093FA
:10206C00A82E08950E94FC000091A82E003019F4AF
:10207C000AE00093A82E089500070000000081FFDD
:10208C000000A92E08E20093A92E00E00093AA2ECE
:10209C00A591B591A093962EB093972EA591B5913D
:1020AC00A093982EB093992EA591B591A0939A2EAA
:1020BC00B0939B2EA591B591A093A62EB093A72E6D
:1020CC00A591B591A093A42EB093A52EA591B591F1
:1020DC000D911D910093942E1093952E0027009333
:1020EC009C2E00939D2E00939E2E00939F2E089560
:1020FC0003E000932C2FB4DCF0E2E4E8C3DF7AD0E9
:10210C0000E00093AD2E0093AB2E0093AC2EA0916B
:10211C001E2FB0911F2FAF93BF939ADFF894A0910D
:10212C009E2CB0919F2C7894FF2406DFA0939A2CC0
:10213C00B0939B2C0E94190D0AD066D0BF91AF9121
:10214C0021F021D011F4119731F72DD00895209161
:10215C00AC2E2130B9F0F091DA2CE091D92CF7FFAC
:10216C0004C0FF3F59F4EE3F4CF02091AB2E2233CC
:10217C0028F423952093AB2E989404C021E020934F
:10218C00AC2E189408951091AD2E0091880401FF87
:10219C0013951093AD2E153020F00E94F8059894ED
:1021AC0001C01894089500919414003011F1B0916D
:1021BC006F2DA0916E2DD091B52CC091B42CAC1B71
:1021CC00BD0BBCF0A7FDB39510919514B11788F019
:1021DC00D091732DC091722DC7FDD3950D9F202CDE
:1021EC00312C1CE3B19F0218130818F001E0009386
:1021FC00A72C0895BEE2AEEA00E01CE40D931A95FC
:10220C00E9F70093F52E0895DEE2CEEA0091F42E64
:10221C00000FC00F00E0D01FE091F12EF091F22ED4
:10222C00A881B981EA1BFB0BA091D92CB091DA2CB7
:10223C00EA0FFB1FE093F12EF093F22EA883B983E3
:10224C000091F42E0395083008F000270093F42E2B
:10225C00F894A0919E2CB0919F2C7894B7FD08C057
:10226C00B03011F4A93220F000E00093F82E4DC0EC
:10227C00A091D92CB091DA2C0091EE2EB7FF03C0AF
:10228C00B095A195BF4FB03031F4A63020F4083092
:10229C0018F4039501C000E00093EE2E2091F52E6A
:1022AC00203069F4083058F0F595E7950695E1F77C
:1022BC00E093EF2EF093F02E01E00093F52E2DD04D
:1022CC0059F10091F52E013001F5B091DA2CA09165
:1022DC00D92CF091F02EE091EF2EEE27FF27AE1BBC
:1022EC00BF0B9CF0F091272FE091262FAE1BBF0B5C
:1022FC0064F00091F62E03950093F62E023040F018
:10230C0000E00093F72E189407C000E00093F62E1F
:10231C0001E00093F72E98940895A091D92CB091D8
:10232C00DA2CB7FD2EC017C0A091D92CB091DA2CA5
:10233C00B7FF0DC0AA5FBF4FDCF400E00093F82E8E
:10234C000091F92E0395A1F00093F92E11C0009184
:10235C00F92E0A3068F0F091272FE091262FAE1B52
:10236C00BF0B34F00091F82E039511F00093F82E6A
:10237C000091F82E043028F000E00093F72E18940A
:10238C0001C0989408950014060000000000FA00A3
:10239C00202F000F070000000000FA00202F000A79
:1023AC00000000000000FA00202F000E400000008A
:1023BC000000FA00202F000D000000000000FA00C1
:1023CC00202F000B000000000000FA00202F0D0051
:1023DC00C9111400CF111A00DB112000E1112400E7
:1023EC00E711F3E2EAED0091202F0DD0CED8D7D82B
:1023FC000E94A30644D042DB0E94B40634D378DE9C
:10240C004DD364D0089515912591259135910117DF
:10241C00D0F7E22FF32FEE0FFF1F3ADE0091202FA3
:10242C001091FA2E010F0093942E08951D91109384
:10243C00202F1D911093212F1D9110931A2F1D9158
:10244C0010931B2F1D9110931E2F1D9110931F2F56
:10245C001D911093262F1D911093272F1D911093D2
:10246C00292F1D9110932A2F10E01093FC2E1093FE
:10247C00AB2E10E010930C2F1093FA2E089501E060
:10248C0000932C2FEDDAA0911A2FB0911B2F00E0A6
:10249C000093FD2E00930A2F0093AC2EAF93BF93A5
:1024AC00D7DDADD959F4B091B62CA091B52CF090E4
:1024BC00B42C42DDA0939A2CB0939B2CB4DABF9130
:1024CC00AF914CD259F7119749F708950091202FED
:1024DC0010916F2D20916E2D27FD13952091FA2EC2
:1024EC000050011740F00150011708F409C02530C5
:1024FC003CF4239503C02C3F1CF02A952093FA2E14
:10250C00089500034C0000000E003200222F00033F
:10251C004C0000001300FA00222F000333000000CF
:10252C001200FA00222F00024C0000001600FA00E4
:10253C00222F0002660000002300FA00222F000266
:10254C00660000002800FA00222F0003660000003D
:10255C002300FA00222F00036600000026009600DC
:10256C00222F0002800000002D00FA00222F000311
:10257C00800000003C00FA00222F0003B300000092
:10258C003400FA00222F0003B30000003C00FA00D4
:10259C00222F080087120D008D12120093121700C3
:1025AC0099121C009F122100A5122600AB122B00C1
:1025BC00B1123000B7123500BD123A00C3123D0003
:1025CC00C91227000F00290010002B0012002D004B
:1025DC001400300016003300190036001C003900BE
:1025EC001F003C0022003F00260042002A0045004C
:1025FC002E00480032004B0037004E003C005100CA
:10260C0041005400460057004C005A0052005D0037
:10261C00580060005E006300640066006B00690097
:10262C0072006C0079006F008000720087007500EA
:10263C008F00780097007B009F007E00A700810030
:10264C00AF008400B8008800C1008C00CA00900064
:10265C00D3009400DC009800E5009C00EF00A00083
:10266C00F900A4000301A7000D01AA001701AD0099
:10267C002101B0002C01B3003701B6004201B900B2
:10268C004D01BC005801BF006301C2006E01C500C2
:10269C007A01C8008601CB009201CE009E01D100C8
:1026AC00AA01D400B501D700C001DA00CB01DD00CE
:1026BC00D601E000E101E300EC01E600F701E900DE
:1026CC000202EC000D02F5E2EEE916D00A2F4DD015
:1026DC0013D0A093942EB093952E0E94CB0A0E94F7
:1026EC00D50A0E94A30684D0A2D0C8D90E94B406F1
:1026FC0066D2FEDC16D00895B091232FA091222F24
:10270C0000910C2FA00F00E0B01FB03039F4AC33A7
:10271C0028F4A53028F4A5E0B0E002C0ACE3B0E0AA
:10272C0008950091FC2E0E30C8F4D091782DC091F4
:10273C00772DF091102FE0910F2FCE17DF0738F087
:10274C0000910C2F0A9581F000930C2F0DC0F09185
:10275C000E2FE0910D2FCE17DF0730F400910C2FC8
:10276C00039511F000930C2F089515912591259147
:10277C0035910117D0F7E22FF32FEE0FFF1F88DCF6
:10278C00089510910C2FF091252FE091242F20917A
:10279C001A2F30911B2FC091222FA091112FB09185
:1027AC00122F4091142F5091152FD091132F1030C0
:1027BC0089F0EA17FB0770F021F04217530750F02D
:1027CC0004C04217530730F091F01D0FC11710F4DD
:1027DC001C1B01C010E010930C2FE093112FF093F1
:1027EC00122F2093142F3093152FC093132F08956D
:1027FC0001E000932C2F34D9A0911A2FB0911B2FEC
:10280C00AF93BF9325DCB091DA2CA091D92C009119
:10281C00D82C92DBA0939A2CB0939B2C04D90E94B9
:10282C00050CBF91AF9111F4119751F7089500E089
:10283C000093FC2ED091782DC091772DF0910E2F16
:10284C00E0910D2FCE17DF0710F502DCB091DA2CDA
:10285C00A091D92C0091D82C6FDBA0939A2CB0931B
:10286C009B2CE1D80091FC2E03950093FC2E0E942A
:10287C00050C69F4B0916C2DA0916B2DF0910E2F7D
:10288C00E0910D2FAE17BF0710F40F3FF1F608952E
:10289C00F5E2EEE919D069DFA0918A14A093942E89
:1028AC000E94CB0A0E94D50A0E94A30617D0E6D834
:1028BC000091A12C0093092F0E94B40680D1D3D093
:1028CC0017DCECD09AD1089500918A140F3010F4D3
:1028DC000FE003C0023308F002E3089501E0009317
:1028EC002C2FBED8A0911A2FB0911B2F0091FC2E2B
:1028FC00A00F00E0B01F0093FD2E00930A2F009351
:10290C00AC2E00930B2F009189140093162F8FD0AF
:10291C0010939A2C00939B2C0F931F93AF93BF9300
:10292C00CF93DF9395DB0E94050C7DD8DF91CF917F
:10293C00BF91AF911F910F910C1B1D0B36D01F93A4
:10294C0051D010939A2C1F9109D031F7119721F780
:10295C0000E000939A2C00939B2C089520910A2F51
:10296C00213011F1F091DA2CE091D92CF7FD04C053
:10297C00F03059F4E23048F42091FD2E263928F439
:10298C0023952093FD2E98940FC02091FD2E20911D
:10299C00AB2EA21B20E0B20B08F011F4A1E0B0E0CA
:1029AC0021E020930A2F189408953091782D2091CE
:1029BC00772DF091252FE091242F4091FB2E4F3055
:1029CC0028F0F091032FE091022F04C0F091012F19
:1029DC00E091002F2E173F0720F011E010930B2FE2
:1029EC0010E008952F932091162F2150F0F00093B2
:1029FC00162F20918B141217C0F40F931F93AF93C3
:102A0C00BF93CF93DF93B091DA2CA091D92C009186
:102A1C00D82C92DAB03009F0AFEF2A2FDF91CF919A
:102A2C00BF91AF911F910F91122F2F91089500918B
:102A3C00FB2E0E5020F40EE00093FB2E00270134E9
:102A4C0020F00EE40093FB2E00E4F5E2EEEC1127EF
:102A5C00000F111F000F111FE00FF11F15910591B1
:102A6C00C591D59108950091FD2EB0911F2FA09185
:102A7C001E2FB093FF2EA093FE2EA01B00E0B00BD8
:102A8C0008F011F4A1E0B0E00091AB2EA00F00E033
:102A9C00B01FB0931F2FA0931E2F0895B091FF2E3F
:102AAC00A091FE2EB0931F2FA0931E2F08951D9161
:102ABC001093242F1D911093252F1D911093222FCD
:102ACC001D911093232F1D9110931A2F1D9110936C
:102ADC001B2F1D9110931C2F1D9110931D2F1D91B9
:102AEC0010931E2F1D9110931F2F1D911093262FA5
:102AFC001D911093272F1D911093292F1D91109329
:102B0C002A2F10E01093FA2E02D02AD00895B091FB
:102B1C00252FA091242FD0911B2FC0911A2FE0911B
:102B2C00052FF091062FAE17BF0739F4E091072F50
:102B3C00F091082FCE17DF0791F0A093052FB093DB
:102B4C00062FC093072FD093082F10E01093FC2E64
:102B5C001093AB2E1091222F1D5F1093FB2E089516
:102B6C00F091252FE091242FBF2FAE2FB695A7956E
:102B7C00B695A795B695A795B695A795EA0FFB1FA1
:102B8C00F093102FE0930F2FF093032FE093022F6D
:102B9C00F091252FE091242FEA1BFB0BF0930E2FC5
:102BAC00E0930D2FF093012FE093002FB695A7958E
:102BBC00B695A795B0E0AB1FA093042F089502E043
:102BCC0000932C2F0E94360D00E000939A2C00935A
:102BDC009B2CA0911C2FB0911D2FC091FC2EAC1BD7
:102BEC0008F4A0E0AA3008F4AAE0AF9331DA0E940E
:102BFC00190DAF91AA95C9F708950091092F0030CE
:102C0C0031F00091FB2E0A950093FB2E0FC0009122
:102C1C000B2F003031F00091FB2E0A950093FB2E08
:102C2C0005C005D019F054D009F078D00895B091B2
:102C3C00782DA091772DD091012FC091002FAC173A
:102C4C00BD0738F0D091032FC091022FAC17BD07F0
:102C5C00E8F1F091252FE091242F0091FB2E0E34FA
:102C6C00A8F5772466245B2E4A2E33240F9F212C43
:102C7C00802C0E9F180C231C331C0E944D043228F0
:102C8C00212819F4002D0E3408F00EE40E3008F44F
:102C9C000EE01091FB2E0117C9F038F4212F201BE8
:102CAC00243148F0012F045106C0202F211B243160
:102CBC0010F0012F0C5E010F079510E0011F00931F
:102CCC00FB2E00E00093FC2E189401C098940895FC
:102CDC000895B091782DA091772DD091032FC091AC
:102CEC00022FAC17BD0758F40091FC2E0030A1F454
:102CFC00D091252FC091242FAC17BD0768F00091FF
:102D0C00FB2E0A950E3008F40EE00093FB2E00E02B
:102D1C000093FC2E189401C098940895D091252FFF
:102D2C00C091242FB091782DA091772D0091FC2E7D
:102D3C001091042FAC17BD0738F4CA1BDB0BD03035
:102D4C0059F4C11748F40DC0AC1BBD0BB03011F4D5
:102D5C00A11738F00A9501C00395023310F40093C3
:102D6C00FC2E0895B091782DA091772DF091252F00
:102D7C00E091242FCF2FDE2FDD0FCC1FDD0FCC1FCA
:102D8C00DD0FCC1FDD27AE17BF0758F0AE1BBF0BF6
:102D9C00AC17BD0780F00091FB2E0A950093FB2E1B
:102DAC000AC0EA1BFB0BEC17FD0728F00091FB2E69
:102DBC0003950093FB2E0895F3E2EAED0091202F8A
:102DCC0022DB0E94CB0A0E94D50A0E94A30638D0AF
:102DDC000E94440D0E94B4068BD908951D91109346
:102DEC00202F1D911093212FCD91C093282FDD9171
:102DFC00D093292F1D911093262F1D911093272FBF
:102E0C001D911093292F1D9110932A2F1D91109312
:102E1C001E2F1D9110931F2FB2E0AFE8CA9FA02C5C
:102E2C00B12CCB9FB00CA7FCB394B092192F10E02F
:102E3C001093FC2E10E010930C2F1093FA2E089583
:102E4C0001E000932C2F0E94360D00E00093172F09
:102E5C000093182FFDD8B091B62CA091B52CF09002
:102E6C00B42C6AD8A0939A2CB0939B2C0E94190D69
:102E7C000E94050C31F5B091182FA091172FB0308E
:102E8C0011F4A233A8F0D091742DC091732D009140
:102E9C00192FD09FB02CC12CC09FA02CB10C00E0DE
:102EAC00C01ED091DA2CC091D92CCB15DC0548F082
:102EBC001196B093182FA093172FB23059F6AE3E3F
:102ECC0049F6089500E900931A2F01E000931B2F97
:102EDC000EE100931C2F00E000931D2F08EC0093D3
:102EEC001E2F00E000931F2F05E00093222F00E01F
:102EFC000093232F0FE00093202F00E00093212F4D
:102F0C0010E010930C2F1093FA2E00E00093852DF7
:102F1C0034D176D114D122D10CE30093932E0895A1
:102F2C00D1DF1BD00E94820F04E69BD20E94F805D1
:102F3C0004E697D20E94FC0000918D2E0130D1F353
:102F4C00B3D11ED03CD100912A2F003011F40E9435
:102F5C003306B4D179F7D4D1EDCF00E000932A2F0A
:102F6C000FEF00932B2F10E01093FC2E10932C2FAF
:102F7C0010932D2F10932E2F00E00093F72E089511
:102F8C0000912D2F003059F00E94F8050AEF69D2FC
:102F9C0007D001E00E948E0D00E000932D2F0895C4
:102FAC00002400928A2D00928B2D00928C2D009281
:102FBC008D2D0092862D0092872D0092882D0092E7
:102FCC00892D0092302F0092312F0092322F0092D7
:102FDC00332F0092342F0092352F0092362F00920F
:102FEC00372F0092382F0092392F01E00093852D56
:102FFC0014E61F932DD81F91E1F711271F9328D8A2
:10300C000E94190D1F9109D02ED01A95B9F700E026
:10301C000093852D4ED070D00895B091B62CA09110
:10302C00B52CD091B42CC091B32CA090302FB09073
:10303C00312FC090322FD090332FE090342FAC0E24
:10304C00BD1ECA1EDB1EB7FF00E0B7FD0FEFE01E72
:10305C00A092302FB092312FC092322FD092332FBA
:10306C00E092342F0895B091DA2CA091D92CD09104
:10307C00D82CC091D72CA090352FB090362FC09063
:10308C00372FD090382FE090392FAC0EBD1ECA1EB2
:10309C00DB1EB7FF00E0B7FD0FEFE01EA092352F4F
:1030AC00B092362FC092372FD092382FE092392F12
:1030BC000895B090312FC090322FD090332FE090E4
:1030CC00342FE0928D2DD0928C2DC0928B2DB092FE
:1030DC008A2DB4E1A0E000918A2D0E948D0F009101
:1030EC008B2D0E948D0F00918C2D0E948D0F0091C5
:1030FC008D2D0E948D0F0895B090362FC090372FD4
:10310C00D090382FE090392FE092892DD092882DD5
:10311C00C092872DB092862DB4E1A4E00091862D4B
:10312C000E948D0F0091872D0E948D0F0091882D8C
:10313C000E948D0F0091892D0E948D0F0895B4E18E
:10314C00A0E00D9100938A2D0D9100938B2D0D9184
:10315C0000938C2D0D9100938D2D0895B4E1A4E076
:10316C000D910093862D0D910093872D0D91009359
:10317C00882D0D910093892D0895B4E1A8E00D914F
:10318C0000938E2D0D9100938F2D0D910093902D0A
:10319C000D910093912DB4E1ACE00D910093922D23
:1031AC000D910093932D0D910093942D0D910093FF
:1031BC00952DB4E1A0E10D910093962D0895009109
:1031CC002E2F003039F01CD001E00E94850D00E05C
:1031DC0000932E2F08958A8683807D7A777572707E
:1031EC006E6C6967656462605E5D5B5A58575554D6
:1031FC005351504F4E4D4C4B4A4948474645444419
:10320C000091962D0C3310F0053608F04CC07091DF
:10321C00952D6091942D5091932D4091922DD0909D
:10322C00912DC090902DB0908F2DA0908E2D4A197D
:10323C005B096C097D09F1E3E2EE0C53E00F00E051
:10324C00F01F049110E0509F202C312C709F402CCB
:10325C00512C409F210C311E411E511E609F300C81
:10326C00411C511EA218B308C408D508A092972D72
:10327C00B092982DC092992DD0929A2D0091962DA6
:10328C000551302E222411240024772E662E552E23
:10329C00442E0E944D0400929B2D10929C2D209246
:1032AC009D2D30929E2D089500918E2E013029F483
:1032BC0002E000938E2E0E947D0D089500912B2F1D
:1032CC000F3F99F01FEF10932B2FBEE2A4E40030B8
:1032DC0069F0013011F4EBDB09C0023011F4A6D80F
:1032EC0005C0033011F47ADD01C002C000932A2F0F
:1032FC0000912A2F003011F4989401C0189408956D
:10330C00F9E1E0E900912A2F043040F4E00F00E0ED
:10331C00F01F099403C0BCCA64C84ECD089501E0E7
:10332C0000932C2F0E94360D00E00093692D009322
:10333C006A2D00936B2D00936C2DCBE4D0E0AEEB9B
:10334C00BAE00E945A0602E000932C2F0E94360D20
:10335C000FEF87D00FEF85D003E000932C2F0E9446
:10336C00360DC2E8DFEFA4E6B0E00E9478060FEF5E
:10337C0078D00FEF76D0DECDB1E0A0E9F894A09331
:10338C009E2CB0939F2C789404D01DD036D04FD067
:10339C00FBCFD0E0CAE0C0939A2CD0939B2C0E9418
:1033AC00FC000091880402FDFACF00E000939A2CF7
:1033BC0000939B2CF894A0919E2CB0919F2C789408
:1033CC000FEF4FD00895DFEFC6EFC0939A2CD09338
:1033DC009B2C0E94FC000091880402FFFACF00E0B5
:1033EC0000939A2C00939B2CF894A0919E2CB09156
:1033FC009F2C78940FEF35D00895DFEFC6EFC09374
:10340C009A2CD0939B2C0E94FC000091880401FD07
:10341C00FACF00E000939A2C00939B2CF894A09187
:10342C009E2CB0919F2C78940FEF1BD00895D0E078
:10343C00CAE0C0939A2CD0939B2C0E94FC00009164
:10344C00880401FFFACF00E000939A2C00939B2C88
:10345C00F894A0919E2CB0919F2C78940FEF01D0F2
:10346C00089500932F2F0E94330600912F2F0030C8
:10347C00D1F70895F89404E00093260404D00DD0FD
:10348C0016D01FD0F7CF02E00093250424D0009172
:10349C00880402FDFBCF2DD0089502E00093260492
:1034AC001AD00091880402FFFBCF23D0089502E0CC
:1034BC000093260410D00091880401FDFBCF19D095
:1034CC00089502E00093250406D00091880401FFC2
:1034DC00FBCF0FD0089501E00093250405D001E047
:1034EC000093260401D00895B7E1A0E71197F1F7F6
:1034FC000895B0E0A4E6DFEFCFEF2197F1F7119735
:04350C00D1F7089556
:00000001FF
